:100000000C948E010C94B6010C94B6010C94B601BC
:100010000C94B6010C94B6010C94B6010C94B60184
:100020000C94B6010C94B6010C94EB190C94B9180D
:100030000C94B6010C94B6010C94B6010C94B60164
:100040000C94B6010C94B6010C94B6010C94B60154
:100050000C94B6010C94B6010C94B6010C94090EE4
:100060000C94B6010C94D5150C9407160C94B6019B
:100070000C94B6010C94B6010C94B6010C94B60124
:100080000C94B6010C94B6010C94B6010C94B60114
:100090000C94B6010C94B6010C94B6010C94B60104
:1000A0000C94B6010C94B6010C94B601270F2C0FDA
:1000B000310F3B0F450F8F0F8F0F8F0F4F0F590FC2
:1000C000630F6D0F7A0F8F0F820FB00FB30FA20F58
:1000D000A60FAC0FD40FD40FD40FB70FBB0FBF0FA9
:1000E000C50FC90FD40FCF0F72756E2D6272696480
:1000F00067650A000A000A000000000200090F00FC
:1001000000030401000C00000000000000000000DB
:100110000000000000000408020110408040102090
:1001200040804080080204018040201002011080BD
:1001300010204040040404040403040502020202E7
:100140000403020202020606060606060404020270
:100150000204000000002300260029002C002F00CC
:1001600000000000250028002B002E0031000000B8
:100170000000240027002A002D003000080B000298
:10018000020201000904000001020200000524002F
:1001900010010524010101042402060524060001C2
:1001A0000705810310004009040100020A00000055
:1001B000070502024000000705830240000000C15D
:1001C0008081C112010002020000404123418000F1
:1001D0000101020001120100020000004041234120
:1001E0008000010102000141726475696E6F204C4C
:1001F0004C430041726475696E6F2059756E00043E
:1002000003090400000000000000002A2B28000061
:1002100000000000000000000000000000000000DE
:100220000000002C9EB4A0A1A2A434A6A7A5AE36BF
:100230002D3738271E1F20212223242526B333B62D
:100240002EB7B89F8485868788898A8B8C8D8E8F00
:10025000909192939495969798999A9B9C9D2F3103
:1002600030A3AD350405060708090A0B0C0D0E0F67
:10027000101112131415161718191A1B1C1DAFB1E3
:10028000B0B50009040200010300000009210101CA
:1002900000012265000705840340000105010902F1
:1002A000A1010901A1008501050919012903150012
:1002B00025019503750181029501750581030501ED
:1002C0000930093109381581257F750895038106A4
:1002D000C0C005010906A1018502050719E029E74B
:1002E00015002501750195088102950175088103A6
:1002F0009506750815002565050719002965810013
:10030000C0009902C2045B066306E008EB08F80D22
:100310004D143716C016951BBD025F0611241FBE73
:10032000CFEFDAE0DEBFCDBF12E0A0E0B1E0E8E75A
:10033000FDE302C005900D92AE35B107D9F724E078
:10034000AEE5B2E001C01D92AE31B207E1F713E0B5
:10035000C8E1D3E004C02297FE010E94DA1BC2303C
:10036000D107C9F70E94C2150C94AF1E0C9400006F
:100370008EE592E00E946D108EE692E00E946D1074
:100380008CE792E00C9440080F931F93CF93DF9378
:1003900064EC79E080E090E00E94820E62E08CE004
:1003A0000E94D50F62E08DE00E94D50F61E0809140
:1003B00006010E94D50FC8E0D1E061E088810E946B
:1003C000D50F0AE011E061E0F80180810E94D50FAD
:1003D00061E083E00E94D50F26E040E950ED63E044
:1003E00070E080910503909106030E9428138CEF22
:1003F00092E00E94F10C40E052EC61E070E081E19B
:1004000093E00E9447146FEF70E0F80180810E9432
:10041000010F6FEF70E08881DF91CF911F910F91F5
:100420000C94010FCF93DF93C82FD62F642F70E069
:10043000809106010E94010F6D2F70E080910801EC
:100440000E94010F6C2F70E080910A010E94010F41
:100450001092670210926602DF91CF910895CF92B9
:10046000DF92EF920F931F93CF93DF93D82F162F26
:10047000C22F20916602309167022130310509F0C8
:1004800041C020916402309165022C153D0594F421
:10049000642F70E0809106010E94010F612F70E0CF
:1004A000809108010E94010F6D2F70E080910A0178
:1004B0000E94010F8091640290916502C816D906CE
:1004C00094F46E2D70E0809106010E94010F602F60
:1004D00070E0809108010E94010F6C2F70E0809104
:1004E0000A010E94010FCC0CDD1C809164029091E6
:1004F0006502C816D90634F48FEF9FEF909365021A
:1005000080936402809164029091650201969093B9
:1005100065028093640281E090E09093670280938B
:100520006602DF91CF911F910F91EF90DF90CF90F6
:1005300008950F9300E020E040E060E08FEC92E04F
:100540000E94B4166CEF72E08CE792E00E942908DA
:1005500001E020E040E06FE786E792E00E94B416F9
:100560006CE372E08EE692E00E94DB106CE372E0D6
:100570008EE592E00F910C94DB100C94B8012F9251
:100580003F924F925F926F927F928F929F92AF9223
:10059000BF92CF92DF92EF92FF920F931F93CF9370
:1005A000DF93CDB7DEB7C156D1090FB6F894DEBFE1
:1005B0000FBECDBF62E271E081E193E00E94E014E2
:1005C00040910C0150910D018DE492E09A83898352
:1005D0008091780290917902A0917A02B0917B0289
:1005E0008B839C83AD83BE83BE016F5F7F4F8CE79F
:1005F00092E00E946E06892B39F060E371E081E1A0
:1006000093E00E94E01411C06AE371E081E193E09D
:100610000E94E0144FEF60E080E00E94120264EC60
:1006200079E080E090E00E94820E5AE0852E912CC5
:1006300068EE262E63E0362E412C512C7EE0672E8C
:1006400072E0772E8CE792E00E944007882309F43D
:100650007FC180916802909169020196909369022E
:10066000809368026CE372E0CE01845A9F4F0E942F
:10067000DB106CE471E08EE692E00E941111E090D4
:100680007202F090730260E070E08EE692E00E94E9
:10069000E311A701BC018CE792E00E94D4068CE72D
:1006A00092E00E947608892BB1F08CE792E00E94DC
:1006B0008008682FCE0101960E942911BE016F5F4C
:1006C0007F4FCE01845A9F4F0E946D11CE0101963B
:1006D0000E946D10E4CF22E030E040E050E0BE0127
:1006E000645A7F4FCE0101960E94F511BE016F5FE3
:1006F0007F4FCE01845A9F4F0E94F110CE01019688
:100700000E946D106CE372E0CE01845A9F4F0E94EC
:10071000C411811107C0BE01645A7F4F8EE592E07B
:100720000E94F1108EE592E00E943A128B019C012A
:10073000CB01B4010E94A21B7B018AE0869F50017D
:10074000879FB00C1124A01AB10A4AE050E0B5010D
:1007500081E193E00E94951591E0E916F10459F4C6
:10076000CC24C394D12C4AE5E42E00E020E040E004
:1007700060E08AE51FC082E0E816F10411F440E071
:1007800021C093E0E916F10441F429E1C22ED12CF5
:10079000E12C00E020E040E00BC084E0E816F1042A
:1007A00061F499E1C92ED12CE12C00E020E048E26F
:1007B00060E08FEF0E942F0209C095E0E916F10476
:1007C00029F443E26FEF80E00E941202A114B10409
:1007D00029F410926B0210926A024FC0AB20A094D1
:1007E00009F04BC067E571E081E193E00E94E014FD
:1007F00080916A0290916B02019690936B028093B4
:100800006A026AEF70E080E090E00E94820E8091C0
:100810006A0290916B02C39764F163E671E081E133
:1008200093E00E94E0141C821B822D823E824F8244
:1008300058867A8269828CEF92E09E878D871B8A28
:100840001C8A1D8A64E771E0CE018A5A9F4F0E947C
:10085000DB10BE016A5A7F4FCE0101960E94DB0A6F
:10086000CE018A5A9F4F0E946D10CE0101960E94C0
:10087000700A8CE792E00E946D068CE00E944410A2
:1008800090936D0280936C02892B61F580917402C4
:1008900090917502892B31F564E871E08EE692E063
:1008A0000E94111161E971E081E193E00E94E0147E
:1008B00081E090E09093750280937402E090720260
:1008C000F090730260E070E08EE692E00E94E31127
:1008D000A701BC018CE792E00E94D4068CE792E06D
:1008E0000E946D0680916C0290916D02019751F506
:1008F0008091740290917502892B21F168EA71E070
:1009000081E193E00E94E01464EC71E08EE692E0F5
:100910000E9411111092750210927402E0907202FE
:10092000F090730260E070E08EE692E00E94E311C6
:10093000A701BC018CE792E00E94D4068CE792E00C
:100940000E946D06CE01845A9F4F0E946D107ACE90
:10095000CF59DF4F0FB6F894DEBF0FBECDBFDF918A
:10096000CF911F910F91FF90EF90DF90CF90BF90AC
:10097000AF909F908F907F906F905F904F903F903F
:100980002F9008950F9300E020E040E060E085EDB7
:1009900092E00E94B4160F9108958F929F92AF92A9
:1009A000BF92CF92DF92EF92FF920F931F93480175
:1009B0005901C12CD12CE12CF12C00E010E020E0F9
:1009C00030E00E94730B1F910F91FF90EF90DF902A
:1009D000CF90BF90AF909F908F9008950F931F93EB
:1009E00000E010E020E030E00E94CD041F910F9164
:1009F0000895CF93DF9300D0CDB7DEB7DC015296D8
:100A00008C915297882389F080E589836A8342E03C
:100A100050E0BE016F5F7F4F1C968D919C911D979A
:100A20000E94EE0481E090E01FC05596ED91FC918C
:100A3000569753968C91539791E0980F53969C93A9
:100A40005397E80FF11D608353969C9153975496EA
:100A50008C915497981308C0ED91FC9111970284E2
:100A6000F385E02DCD0109950F900F90DF91CF9187
:100A70000895AF92BF92CF92DF92EF92FF920F93C1
:100A80001F93CF93DF9300D0CDB7DEB75C017A011F
:100A9000DC0152968C91811104C08B01E60EF71E89
:100AA00041C06A01BFEFCB1ADB0AC60169837A83B2
:100AB0000E946C148C01FC0180E58193A70169817F
:100AC0007A81CF010E940A1EA601B801F501848532
:100AD00095850E94EE040115110519F0C8010E94C8
:100AE0007014C70122C0D5015596ED91FC9156971F
:100AF00053968C91539791E0980F53969C93D801FD
:100B00009D918D01E80FF11D9083F50193898489F2
:100B1000981308C00190F081E02D0284F385E02D48
:100B2000C50109950E151F05F1F60F900F90DF9185
:100B3000CF911F910F91FF90EF90DF90CF90BF90DA
:100B4000AF900895CF93DF93EC018A8981110AC099
:100B50004B8950E06D897E898C859D850E94EE04CD
:100B600081E08B8BDF91CF910895FC01138212827B
:100B700048EE53E060E070E04483558366837783FA
:100B800084ED91E0918380838CEF92E09587848758
:100B900016861786118A108A81E0828B0895CF937A
:100BA000DF93EC018A89811108C08D899E890097A5
:100BB00011F00E94701481E08A8BDF91CF9108952B
:100BC000EF92FF920F931F93CF93DF9300D0CDB797
:100BD000DEB77C01FC018685811114C0178680E791
:100BE000898380E28A832089318900E210E042E033
:100BF00050E0BE016F5F7F4F848595850E94CD04D4
:100C0000F70186870F900F90DF91CF911F910F9181
:100C1000FF90EF900895CF93DF93EC010E94E005E1
:100C20008E8590E0DF91CF910895CF93DF93EC0113
:100C30000E94E0058E85882369F081508E87E889BF
:100C4000F9898F8591E0980F9F87E80FF11D8081CA
:100C500090E002C08FEF9FEFDF91CF910895CF9387
:100C6000DF93EC010E94E0058E85882341F08F859B
:100C7000E889F989E80FF11D808190E002C08FEFCB
:100C80009FEFDF91CF910895CF93DF93EC010E9406
:100C9000CF0588899989009721F00E947014198ADC
:100CA000188ADF91CF91089524ED31E0FC01318362
:100CB00020830C9444068BED92E00C94B5058BEDEB
:100CC00092E00C9454068CEF92E09093F3028093A0
:100CD000F2020895FC01808908950895EF92FF9231
:100CE0000F931F93CF93DF93CDB7DEB728970FB63F
:100CF000F894DEBF0FBECDBF7C018B016CE372E0C8
:100D0000CE0101964F8358870E94DB1062E170E0AC
:100D1000CE0101960E949E10D80112966C91CE01D0
:100D200001960E9497116EE2CE0101960E948411F5
:100D3000F8016381CE0101960E9497116EE2CE0107
:100D400001960E948411D80114966C91CE010196EF
:100D50000E9497116EE2CE0101960E948411F80163
:100D60006581CE0101960E949711D701ED91FC910A
:100D700069817A810684F785E02D4F815885C70106
:100D800009958C01CE0101960E946D10C80128962C
:100D90000FB6F894DEBF0FBECDBFDF91CF911F918C
:100DA0000F91FF90EF9008956F927F928F929F9294
:100DB000AF92BF92CF92DF92EF92FF920F931F9369
:100DC000CF93DF9300D0CDB7DEB7FC019B013A0192
:100DD00080898823C1F08CE6898386858A83812C6B
:100DE000912CA12CB12CC12CD12CE12CF12C8A01FD
:100DF00042E050E0BE016F5F7F4F848595850E9481
:100E0000730BC30102C080E090E00F900F90DF9160
:100E1000CF911F910F91FF90EF90DF90CF90BF90F7
:100E2000AF909F908F907F906F900895EF92FF9278
:100E30000F931F93CF93DF9300D0CDB7DEB77C0124
:100E4000FC018089882389F08AE6898386858A83E4
:100E500000E010E020E030E042E050E0BE016F5FD3
:100E60007F4F848595850E94CD04F701108A0F90ED
:100E70000F90DF91CF911F910F91FF90EF90089508
:100E80000F931F93CF93DF9300D01F92CDB7DEB7A0
:100E9000FC0180898823B1F08CE4898386858A836C
:100EA00001E010E09E012D5F3F4F42E050E0BE01A7
:100EB0006F5F7F4F848595850E94CD0481E09B8183
:100EC000913009F080E00F900F900F90DF91CF915B
:100ED0001F910F9108956F927F928F929F92AF9280
:100EE000BF92CF92DF92EF92FF920F931F93CF9317
:100EF000DF93CDB7DEB727970FB6F894DEBF0FBEEE
:100F0000CDBF3C019B0183E489835A834B83DB0182
:100F10000D900020E9F78D0101501109061B170BF8
:100F200088248394912CFE0137965F01C12CD12C2B
:100F3000E12CF12C43E050E0BE016F5F7F4FD30105
:100F40001C968D919C911D970E94730B892BE1F14A
:100F50002F81822F90E0F3019787868783E68C8329
:100F60002D8301E010E09E012A5F3F4F42E050E0F8
:100F7000BE016C5F7F4FD3011C968D919C911D9794
:100F80000E94CD048E81882339F061E070E080E01A
:100F900090E00E94820EE5CF81E0F301808B01900A
:100FA000F081E02D0488F589E02DC30109958111B8
:100FB0000EC0D301ED91FC910288F389E02DC301AD
:100FC0000995F3011786168680E090E002C081E063
:100FD00090E027960FB6F894DEBF0FBECDBFDF912D
:100FE000CF911F910F91FF90EF90DF90CF90BF9026
:100FF000AF909F908F907F906F9008950F931F9365
:10100000CF93DF9300D01F92CDB7DEB7FC0180896C
:101010008823A9F08CE6898386858A836B8300E028
:1010200010E020E030E043E050E0BE016F5F7F4F12
:10103000848595850E94CD0481E090E002C080E027
:1010400090E00F900F900F90DF91CF911F910F9133
:101050000895FC01CB011382128248EE53E060E058
:1010600070E0448355836683778324EE31E03183D7
:1010700020839587848717861686108A118A08959B
:1010800024EE31E0FC01318320830895EF92FF923A
:101090000F931F93CF93DF9300D01F92CDB7DEB78E
:1010A0007C01FC018189811117C0128A8BE489833C
:1010B00086858A8380E48B8397012D5E3F4F00E411
:1010C00010E043E050E0BE016F5F7F4F848595855F
:1010D0000E94CD04F701818B0F900F900F90DF914C
:1010E000CF911F910F91FF90EF900895CF93DF93D1
:1010F000EC010E944608898990E0DF91CF91089524
:10110000CF93DF93EC010E9446088989882359F028
:101110008150898B8A8991E0980F9A8BC80FD11DD5
:101120008B8990E002C08FEF9FEFDF91CF91089500
:10113000CF92DF92EF92FF920F931F93CF93DF93A3
:10114000EC016A018B01E12CF12C89898823A9F03B
:101150008FEFE81AF80A8A8991E0980F9A8BFE01BE
:10116000E80FF11D8389F80181938F0189898150EE
:10117000898BEC14FD0448F306C0CE010E9446089A
:1011800089898111E5CFC701DF91CF911F910F911F
:10119000FF90EF90DF90CF900895CF93DF93EC0115
:1011A0000E9446088989882331F08A89C80FD11D99
:1011B0008B8990E002C08FEF9FEFDF91CF91089570
:1011C0000F9300E020E040E060E084EF92E00E94B6
:1011D000B4160F9108958CEF92E09093FB028093E8
:1011E000FA02089508950F931F93CF93DF9300D0D1
:1011F0001F92CDB7DEB729E42983FC0126852A8317
:101200006B8300E010E020E030E043E050E0BE01FE
:101210006F5F7F4F848595850E94CD0481E090E0CB
:101220000F900F900F90DF91CF911F910F91089524
:10123000EF92FF920F931F93CF93DF9300D01F92F3
:10124000CDB7DEB77C01FC018389811117C0148AF8
:101250008FE4898386858A8380E48B8397012B5E64
:101260003F4F00E410E043E050E0BE016F5F7F4F6E
:10127000848595850E94CD04F701838B0F900F9094
:101280000F90DF91CF911F910F91FF90EF900895F4
:10129000CF93DF93EC010E9418098B8990E0DF91D6
:1012A000CF910895CF93DF93EC010E9418098B89A9
:1012B000882359F081508B8B8C8991E0980F9C8BFF
:1012C000C80FD11D8D8990E002C08FEF9FEFDF9195
:1012D000CF910895CF93DF93EC010E9418098B8979
:1012E000882331F08C89C80FD11D8D8990E002C010
:1012F0008FEF9FEFDF91CF9108950F931F93CF93BF
:10130000DF93EC018B016CEF71E0888999890E9471
:101310007411B80188899989DF91CF911F910F913C
:101320000C946D116F927F928F929F92AF92BF92A9
:10133000CF92DF92EF92FF920F931F93CF93DF93A1
:1013400000D01F92CDB7DEB73C0182E58B83D3017D
:101350005096ED91FC915197048115812081318146
:1013600082E0882E912CFE0131965F01C12CD12C98
:10137000E12CF12C41E050E0BE016D5F7F4F1C96E7
:101380008D919C911D970E94730B8A8190E0D301EF
:101390001F969C938E931E9750960D911C9151977A
:1013A0000115110531F0C8010E946D10C8010E949D
:1013B0006E14F301118A108A8981811102C081E0C3
:1013C000828B0F900F900F90DF91CF911F910F9113
:1013D000FF90EF90DF90CF90BF90AF909F908F9055
:1013E0007F906F9008950F931F93CF93DF9300D05A
:1013F0001F92CDB7DEB722E72983FC0126852A8319
:1014000001E010E09E012D5F3F4F42E050E0BE0141
:101410006F5F7F4F848595850E94CD0481E09B811D
:10142000913009F080E00F900F900F90DF91CF91F5
:101430001F910F9108950F931F93CF93DF9300D0C7
:1014400000D0CDB7DEB727E52B83FC0126852C83A2
:1014500002E010E09E012F5F3F4F42E050E0BE01EE
:101460006D5F7F4F848595850E94CD04898190E0D2
:10147000982F88272A81820F911D0F900F900F902F
:101480000F90DF91CF911F910F910895EF92FF92EE
:101490000F931F93CF93DF9300D0CDB7DEB77C01BE
:1014A000FC018289882389F087E7898386858A837E
:1014B00000E010E020E030E042E050E0BE016F5F6D
:1014C0007F4F848595850E94CD04F701128A0F9085
:1014D0000F90DF91CF911F910F91FF90EF900895A2
:1014E0002EE032E0FC01318320830C94460AEF9217
:1014F000FF920F931F93CF93DF9300D0CDB7DEB74A
:101500007C0169837A830E94460A86E090E00E940B
:101510006A148C0169817A810E940811F701118B8C
:10152000008B0F900F90DF91CF911F910F91FF9043
:10153000EF900895EF92FF920F931F93CF93DF9355
:1015400000D000D000D0CDB7DEB78C017B016EEFAC
:1015500071E0CE0101960E94DB10BE016F5F7F4FEC
:10156000C8010E94770ACE0101960E946D1067E0C3
:1015700072E0CE0101960E94DB10BE016F5F7F4FCB
:10158000C8010E947D09CE0101960E946D10B7012D
:10159000C8010E947D09C8010E94920926960FB6D3
:1015A000F894DEBF0FBECDBFDF91CF911F910F9199
:1015B000FF90EF900895CF93DF93EC010E949A0A79
:1015C000CE010E94F309882339F064E670E080E0E0
:1015D00090E00E94820EF4CFCE01DF91CF910C9467
:1015E0001B0AFC01238134812627022E2295207FAD
:1015F0002025032E322F22952F7002262695322782
:101600002327220F220F220F2025FC01348323835E
:101610000895CF93DF93EC018D819E81DC01ED91E4
:10162000FC916C810190F081E02D09958D819E8166
:10163000DC01ED91FC910190F081E02D6B81DF9157
:10164000CF9109948F929F92AF92BF92CF92DF92E7
:10165000EF92FF92CF93DF93EC016B010E94530E48
:101660004B015C01E12CF12C8D819E81DC01ED911F
:10167000FC910680F781E02D099597FF0DC00E942F
:10168000530E681979098A099B096C157D058E0529
:101690009F0550F38FEF9FEFDF91CF91FF90EF9079
:1016A000DF90CF90BF90AF909F908F900895CF9391
:1016B000DF93EC018D819E81DC01ED91FC91048032
:1016C000F581E02D09951816190654F48D819E8137
:1016D000DC01ED91FC910680F781E02D0995EACFC0
:1016E000DF91CF9108952F923F924F925F926F9228
:1016F0007F928F929F92AF92BF92CF92DF92EF92A2
:10170000FF920F931F93CF93DF93CDB7DEB72D9743
:101710000FB6F894DEBF0FBECDBF3C011B013C836A
:101720002B83BF82AE825801AC0CBD1CA40EB51E2B
:10173000BD824B2C512CCA01860F971F9987888731
:10174000D901A00FB11FBB87AA87F601EE0DFF1DBF
:10175000FD87EC87D30118968C91581608F026C1A6
:10176000EFEFFFEFD3011496FC93EE9313971596CA
:101770008D919C911697DC01ED91FC910190F08187
:10178000E02D6FEF09956FEFC3010E94F10AF3019D
:1017900085819681DC01ED91FC910190F081E02D35
:1017A000D3016C910995F3016081C3010E94F10A94
:1017B000D30115968D919C911697DC01ED91FC91CA
:1017C0000190F081E02D6D810995642DC3010E9487
:1017D000F10AF30185819681DC01ED91FC91019084
:1017E000F081E02D6A2D09956A2DC3010E94F10A4E
:1017F000610188859985C816D906A1F0F301858114
:1018000096818601DC01ED91FC910190F081E02D43
:10181000D6016D916D010995F8016081C3010E94A7
:10182000F10AE7CFCB80DC808A859B85C816D90674
:10183000B1F0D30115968D919C9116978601DC012C
:10184000ED91FC910190F081E02DD6016D916D013B
:101850000995F8016081C3010E94F10AE5CF870173
:101860008C859D8508171907B1F0D30115968D91C8
:101870009C9116976801DC01ED91FC910190F0813B
:10188000E02DD8016D918D010995F6016081C301AC
:101890000E94F10AE5CFC3010E94090B64E670E0E3
:1018A000C3010E94220B8F3F910509F074C0EFEF36
:1018B000FFEFD3011496FC93EE9313976FEFC301E0
:1018C0000E94F10A65E070E0C3010E94220BD3017F
:1018D0006C91262F30E08217930709F05CC0C3019A
:1018E0000E94F10A6AE070E0C3010E94220B8C01A1
:1018F00097FD51C0682FC3010E94F10A6AE070E0B1
:10190000C3010E94220B6C0197FD45C0682FC301E3
:101910000E94F10A0A83198209811A810C0D1D1D8A
:10192000C12CD12C65E070E0C301C016D106A1F036
:10193000C814D90489F00E94220B97FD09C0EE81DA
:10194000FF81EC0DFD1D8083682FC3010E94F10A09
:10195000BFEFCB1ADB0AE6CF0E94220B6C0197FD8A
:101960001AC065E070E0C3010E94220B97FD13C00E
:10197000DC2CCC24C80ED91EF301838194818C15F4
:101980009D0549F480818F5F8083C8018016910690
:1019900078F4C4010DC0539464E670E080E090E0F8
:1019A0000E94820EC3010E94570BD4CE8FEF9FEF8F
:1019B0002D960FB6F894DEBF0FBECDBFDF91CF914D
:1019C0001F910F91FF90EF90DF90CF90BF90AF905D
:1019D0009F908F907F906F905F904F903F902F904F
:1019E00008953F924F925F926F927F928F929F9253
:1019F000AF92BF92CF92DF92EF92FF920F931F931D
:101A0000CF93DF93CDB7DEB72E970FB6F894DEBF36
:101A10000FBECDBF3C01DC0117968C911797811149
:101A2000CFC081E017968C93C3010E94570B68EEDC
:101A300073E080E090E00E94820EF3018581968140
:101A4000DC01ED91FC910480F581E02D09951816DB
:101A5000190654F355E0552E4424439462E3362E80
:101A6000E8E1F1E0DE011696852D01900D928A9550
:101A7000E1F7F3014086812C912CA12CB12CC12CD3
:101A8000D12CE12CF12C00E010E020E030E045E02A
:101A900050E0BE016A5F7F4FC3010E94730B63E099
:101AA000D30115968D919C9116970E94D5146AEFDB
:101AB00070E080E090E00E94820E66EF70E0F3013B
:101AC000858196810E94B0146AEF70E080E090E01A
:101AD0000E94820E64EF70E0D30115968D919C9167
:101AE00016970E94B01464EF71E080E090E00E94CD
:101AF000820E68EE70E0F301858196810E94B01439
:101B000064EF71E080E090E00E94820EC3010E94C9
:101B1000570BEDE1F1E0DE011196852D01900D925C
:101B20008A95E1F7D30118963C9244E0842E912CDB
:101B3000FE013B965F0120E030E045E050E0BE0151
:101B40006F5F7F4FC3010E94730B8F3FFFEF9F07B3
:101B500039F468EE73E080E090E00E94820E80CF5E
:101B60002B852111FFCF049711F52C8530E02053F0
:101B7000310944E6429FC001439F900D11242D85F9
:101B800030E0205331096AE0629FA001639F500D4D
:101B90001124840F951F2E8530E020533109820FC8
:101BA000931FD30112969C938E93119705C084E6E0
:101BB00090E0F3019283818382E3D30118968C93A2
:101BC0002E960FB6F894DEBF0FBECDBFDF91CF913A
:101BD0001F910F91FF90EF90DF90CF90BF90AF904B
:101BE0009F908F907F906F905F904F903F9008955F
:101BF0001092FC0281E693E090930203809301032C
:101C0000109203031092040390930603809305033C
:101C100008951F920F920FB60F9211242F933F93A6
:101C20008F939F93AF93BF93809108039091090383
:101C3000A0910A03B0910B033091070323E0230F17
:101C40002D3720F40196A11DB11D05C026E8230FF4
:101C50000296A11DB11D2093070380930803909362
:101C60000903A0930A03B0930B0380910C03909196
:101C70000D03A0910E03B0910F030196A11DB11D9C
:101C800080930C0390930D03A0930E03B0930F0366
:101C9000BF91AF919F918F913F912F910F900FBE68
:101CA0000F901F9018952FB7F894609108037091CA
:101CB000090380910A0390910B032FBF08953FB74A
:101CC000F89480910C0390910D03A0910E03B091B4
:101CD0000F0326B5A89B05C02F3F19F00196A11D43
:101CE000B11D3FBF6627782F892F9A2F620F711D74
:101CF000811D911D42E0660F771F881F991F4A952D
:101D0000D1F70895CF92DF92EF92FF92CF93DF93B6
:101D10006B017C010E945F0EEB01C114D104E10450
:101D2000F10489F00E94000F0E945F0E6C1B7D0B76
:101D3000683E734090F381E0C81AD108E108F108C9
:101D4000C851DC4FEACFDF91CF91FF90EF90DF9049
:101D5000CF900895789484B5826084BD84B5816005
:101D600084BD85B5826085BD85B5816085BDEEE6A3
:101D7000F0E0808181608083E1E8F0E01082808182
:101D800082608083808181608083E0E8F0E08081F0
:101D900081608083E1E9F0E08081826080838081DE
:101DA00081608083E0E9F0E0808181608083E1EC04
:101DB000F0E0808184608083808182608083808184
:101DC00081608083E3ECF0E0808181608083E0ECDF
:101DD000F0E0808182608083E2ECF0E080818160CD
:101DE0008083EAE7F0E08081846080838081826084
:101DF0008083808181608083808180688083089572
:101E000008951F93CF93DF93182FEB0161E00E9499
:101E1000D50F209711F460E004C0CF3FD10539F40D
:101E200061E0812FDF91CF911F910C940E10E12F73
:101E3000F0E0E850FF4F449150E0FA013197EF3065
:101E4000F10508F06CC0EA5AFF4F0C94D81B84B51A
:101E5000806884BDC7BD68C084B5806284BDC8BDCC
:101E600063C080918000806880938000D093890057
:101E7000C093880059C08091800080628093800068
:101E8000D0938B00C0938A004FC0809180008860FF
:101E900080938000D0938D00C0938C0045C08091CA
:101EA0009000806880939000D0939900C093980030
:101EB0003BC080919000806280939000D0939B0003
:101EC000C0939A0031C08091900088608093900008
:101ED000D0939D00C0939C0027C08091C000806873
:101EE0008093C0008091C0008F7B8093C000C0931E
:101EF000CF001AC08091C00080628093C000C09360
:101F0000D00012C08091C20088608093C20080918E
:101F1000C2008B7F8093C200C093D20005C0C0383E
:101F2000D1050CF07DCF77CFDF91CF911F91089530
:101F300090E0FC013197EF30F105B0F5EB59FF4F20
:101F40000C94D81B809180008F7703C08091800013
:101F50008F7D80938000089580918000877FF9CFE6
:101F600084B58F7702C084B58F7D84BD089580913C
:101F700090008F7707C0809190008F7D03C0809183
:101F80009000877F8093900008958091C0008F77A4
:101F900003C08091C0008F7D8093C0000895809120
:101FA000C200877F8093C2000895CF93DF9390E0B3
:101FB000FC01EA5EFE4F2491FC01EC5CFE4F849133
:101FC000882349F190E0880F991FFC01E259FE4FE8
:101FD000A591B491805A9E4FFC01C591D4919FB7B1
:101FE000611108C0F8948C91209582238C9388818C
:101FF00082230AC0623051F4F8948C91322F3095CC
:1020000083238C938881822B888304C0F8948C91DD
:10201000822B8C939FBFDF91CF9108950F931F93D5
:10202000CF93DF931F92CDB7DEB7282F30E0F901B1
:10203000E850FF4F8491F901EA5EFE4F1491F901D7
:10204000EC5CFE4F04910023C9F0882321F06983E2
:102050000E94980F6981E02FF0E0EE0FFF1FE05A19
:10206000FE4FA591B4919FB7F8948C91611103C074
:102070001095812301C0812B8C939FBF0F90DF911E
:10208000CF911F910F910895CF93DF93282F30E0C8
:10209000F901E850FF4F8491F901EA5EFE4FD491B7
:1020A000F901EC5CFE4FC491CC2391F081110E94A8
:1020B000980FEC2FF0E0EE0FFF1FEE5AFE4FA591A8
:1020C000B4912C912D2381E090E021F480E002C0B6
:1020D00080E090E0DF91CF910895FC0180819181B3
:1020E0000C948A1CCF93DF93EC018881998100972F
:1020F00011F00E948A1C198218821D821C821B8288
:102100001A82DF91CF9108950F931F93CF93DF939E
:10211000EC018B016F5F7F4F888199810E94191DAF
:10212000009731F0998388831B830A8381E001C083
:1021300080E0DF91CF911F910F910895CF93DF93AE
:10214000EC0188819981892B29F08A819B818617EE
:10215000970760F4CE010E948410882341F08C819F
:102160009D81892B19F4E881F981108281E0DF914A
:10217000CF910895EF92FF920F931F93CF93DF9328
:10218000EC017B018A01BA010E949E10811104C0FA
:10219000CE010E94721007C01D830C83B701888195
:1021A00099810E941C1ECE01DF91CF911F910F914A
:1021B000FF90EF900895FC01118210821382128229
:1021C000158214826115710559F0FB010190002000
:1021D000E9F7AF0141505109461B570B0C94BA1057
:1021E0000895CF93DF93EC01FB018617970761F009
:1021F000608171816115710529F0448155810E94CA
:10220000BA1002C00E947210CE01DF91CF910895E2
:10221000FC011182108213821282158214820C94A6
:10222000F110CF93DF93EC016115710561F0FB01B3
:1022300001900020E9F7AF0141505109461B570BAF
:102240000E94BA1002C00E947210CE01DF91CF919D
:102250000895CF93DF9300D0CDB7DEB7FC01118294
:102260001082138212821582148269831A82BE013F
:102270006F5F7F4F0E9411110F900F90DF91CF91F0
:102280000895EF92FF920F931F93CF93DF93EC018A
:102290007B010C811D816115710511F480E016C070
:1022A0004115510591F0040F151FB8010E949E10B1
:1022B0008823A1F3288139818C819D81B701820F08
:1022C000931F0E941C1E1D830C8381E0DF91CF9120
:1022D0001F910F91FF90EF900895FB01448155816C
:1022E000608171810C9441116115710559F0FB01F8
:1022F00001900020E9F7AF0141505109461B570BEF
:102300000C94411180E00895CF93DF9300D0CDB7B6
:10231000DEB769831A8241E050E0BE016F5F7F4FF4
:102320000E9441110F900F90DF91CF910895EF928D
:10233000FF920F931F93CF93DF9300D000D0CDB7C0
:10234000DEB77C01862F4AE050E08E010F5F1F4F01
:10235000B80190E00E94231EF80101900020E9F7E7
:10236000AF0141505109401B510BB801C7010E94F8
:1023700041110F900F900F900F90DF91CF911F910F
:102380000F91FF90EF900895FC0124813581232B5C
:1023900031F421E061157105A1F0FB0108C0FC01D9
:1023A000808191816115710531F421E0FC0180810A
:1023B000882339F005C00E94131E21E0892B09F003
:1023C00020E0822F0895FC018481958168177907A8
:1023D00020F480819181009729F41092100380E10C
:1023E00093E00895860F971F0895BF92CF92DF92D2
:1023F000EF92FF920F931F93CF93DF936C017B01BA
:10240000EA0189012417350720F48D2FE901042FF3
:10241000182F6CE372E0C6010E94DB10D7011496FE
:102420008D919C911597C817D907C8F4801791070B
:1024300008F48C01D701ED91FC911197E00FF11F89
:10244000B08010826D917C916C0F7D1FC6010E943F
:102450001111D701ED91FC91E00FF11FB082C6017F
:10246000DF91CF911F910F91FF90EF90DF90CF9070
:10247000BF900895FC0180819181009711F00C9428
:10248000E31D60E070E0CB010895FC01818D228D99
:1024900090E0805C9F4F821B91098F73992708956C
:1024A000FC01918D828D981731F0828DE80FF11D1E
:1024B000858D90E008958FEF9FEF0895FC01918D39
:1024C000828D981761F0828DDF01A80FB11D5D9696
:1024D0008C91928D9F5F9F73928F90E008958FEF04
:1024E0009FEF08958DE296E1892B49F080E090E01E
:1024F000892B29F00E942D1681110C94000008955B
:10250000FC01848DDF01A80FB11DA35ABF4F2C9190
:10251000848D90E001968F739927848FA689B7895F
:102520002C93A089B1898C9180648C93938D848D38
:10253000981306C00288F389E02D80818F7D808307
:102540000895CF93DF93EC01888D8823C9F0EA8941
:10255000FB89808185FD05C0A889B9898C9186FD9C
:102560000FC00FB607FCF5CF808185FFF2CFA88999
:10257000B9898C9185FFEDCFCE010E948012E7CF03
:10258000DF91CF910895CF92DF92FF920F931F9327
:10259000CF93DF931F92CDB7DEB76C0181E0D601F8
:1025A00058968C9358975B969C915B975C968C9110
:1025B0005C97981307C05096ED91FC9151978081DC
:1025C00085FD2EC0F601038D10E00F5F1F4F0F73C6
:1025D0001127F02EF601848DF81211C00FB607FCFA
:1025E000F9CFD6015096ED91FC915197808185FFEE
:1025F000F1CFC60169830E9480126981EBCF838D80
:10260000E80FF11DE35AFF4F6083D6015B960C93F0
:102610005B975296ED91FC915397808180620CC03C
:10262000D6015696ED91FC91579760835096ED91A7
:10263000FC91519780818064808381E090E00F90CD
:10264000DF91CF911F910F91FF90DF90CF90089570
:10265000BF92CF92DF92EF92FF92CF93DF93EC0184
:102660006A017B01B22EE889F98982E080834115F5
:1026700081EE580761057105A1F060E079E08DE316
:1026800090E0A70196010E94B61B21503109410933
:1026900051095695479537952795211580E13807BB
:1026A00098F0E889F989108260E874E88EE190E09A
:1026B000A70196010E94B61B215031094109510919
:1026C0005695479537952795EC85FD853083EE85A2
:1026D000FF852083188EEC89FD89B082EA89FB8909
:1026E000808180618083EA89FB8980818860808322
:1026F000EA89FB89808180688083EA89FB898081FF
:102700008F7D8083DF91CF91FF90EF90DF90CF900E
:10271000BF900895CF93DF931F92CDB7DEB7698343
:10272000DC01ED91FC910280F381E02D41E050E06D
:10273000BE016F5F7F4F09950F90DF91CF91089594
:10274000CF93DF93EC018C859D8597FF05C082E0D8
:102750000E948E179D878C878C859D85DF91CF91F8
:10276000089583E00C94E119FC018485958597FD1B
:1027700006C082E00E94361790E00196089582E03C
:102780000E94361790E00895FC018485958597FD99
:1027900005C02FEF3FEF35872487089582E00C9422
:1027A0008E17CF93DF93EC0180911501882331F0D0
:1027B00083E00E94BF171816190634F081E090E0FC
:1027C0009B838A8380E090E0DF91CF910895FC01A4
:1027D00020812E5F208342E450E06CE771E080E8C6
:1027E0000C945A18FC0181819081913A59F48132FC
:1027F00009F03CC047E050E06EE071E080E00E94EC
:102800005A1843C0913291F5803239F467E070E094
:102810008EE091E00E948B1806C0823209F035C02C
:1028200082818093150180910E0190910F01A091FA
:102830001001B0911101803B9440A105B105C1F494
:102840008091150180FD14C087E797E790930108F8
:10285000809300082BE088E190E00FB6F894A895EB
:10286000809360000FBE209360000FC080E0089549
:1028700088E10FB6F89480936000109260000FBE5C
:10288000A895109201081092000881E008952FEF9A
:102890003FEFFC01358724870895109214031092AE
:1028A000130388EE93E0A0E0B0E0809315039093CB
:1028B0001603A0931703B09318038EE292E090934F
:1028C0001203809311038FEF9FEF90931E03809369
:1028D0001D0308950C94F21B0C94F21B0C948A1C9B
:1028E0000C948A1CCF92DF92EF92FF920F931F936A
:1028F000CF93DF936C017A01EB01E60EF71E00E047
:1029000010E0CE15DF0561F06991D601ED91FC91E3
:102910000190F081E02DC6010995080F191FF1CF34
:10292000C801DF91CF911F910F91FF90EF90DF9041
:10293000CF9008956115710581F0DB010D900020A5
:10294000E9F7AD0141505109461B570BDC01ED91F0
:10295000FC910280F381E02D099480E090E00895DD
:10296000EF92FF920F931F93CF93DF938C01FB01A4
:10297000C0E0D0E064917F018FEFE81AF80A662387
:1029800061F0D801ED91FC910190F081E02DC8013A
:102990000995C80FD91FF701EDCFCE01DF91CF9177
:1029A0001F910F91FF90EF900895DC01ED91FC9144
:1029B0000190F081E02D09946AE372E00C949A147E
:1029C0000F931F93CF93DF93EC010E949A148C0115
:1029D000CE010E94DC14800F911FDF91CF911F91D7
:1029E0000F9108958F929F92AF92BF92CF92DF92F4
:1029F000EF92FF920F931F93CF93DF93CDB7DEB784
:102A0000A1970FB6F894DEBF0FBECDBF7C01C42ED8
:102A1000E52FCB01D22E19A221E02D1510F02AE0CE
:102A2000D22E8E010F5D1F4F8D2C912CA12CB12C1D
:102A30006C2D7E2FA50194010E94B61B8C2DD29E79
:102A400080191124015011098A3014F4805D01C0ED
:102A5000895CF8018083211531054105510521F07C
:102A6000C22EE32FCA01E4CFB801C7010E949A1415
:102A7000A1960FB6F894DEBF0FBECDBFDF91CF9108
:102A80001F910F91FF90EF90DF90CF90BF90AF908C
:102A90009F908F900895CF92DF92EF92FF920F93C5
:102AA0001F93CF93DF93EC016A017B012115310560
:102AB00079F4E881F9810190F081E02D642FDF91B4
:102AC000CF911F910F91FF90EF90DF90CF900994DD
:102AD0002A303105E9F477FF1AC06DE20E94D5145F
:102AE0008C0144275527BA014C195D096E097F09ED
:102AF0002AE0CE010E94F214800F911FDF91CF9146
:102B00001F910F91FF90EF90DF90CF9008952AE0F2
:102B1000B701A601CE01DF91CF911F910F91FF90D8
:102B2000EF90DF90CF900C94F2140F931F93CF93FC
:102B3000DF93EC019A01AB01662757FD6095762F74
:102B40000E944B158C01CE010E94DC14800F911F56
:102B5000DF91CF911F910F9108952115310541F417
:102B6000DC01ED91FC910190F081E02D642F09943E
:102B70000C94F2149A01462F50E060E070E00C943F
:102B8000AD1508950E94AA0E0E94C11584E094E03C
:102B90000E94411A0E94C401C2E7D2E10E94BF0212
:102BA0002097E1F30E947212F9CF1F920F920FB695
:102BB0000F9211242F938F939F93EF93FF93E091A4
:102BC0007103F09172038081E0917703F0917803B3
:102BD00082FD12C0908180917A038F5F8F73209164
:102BE0007B03821751F0E0917A03F0E0EF59FC4F3C
:102BF000958F80937A0301C08081FF91EF919F911F
:102C00008F912F910F900FBE0F901F9018951F92CC
:102C10000F920FB60F9211242F933F934F935F9310
:102C20006F937F938F939F93AF93BF93EF93FF9394
:102C300081E693E00E948012FF91EF91BF91AF91E6
:102C40009F918F917F916F915F914F913F912F91C4
:102C50000F900FBE0F901F90189581E693E00E9491
:102C6000451221E0892B09F420E0822F089510926B
:102C700064031092630388EE93E0A0E0B0E08093D9
:102C8000650390936603A0936703B09368038EE196
:102C900092E090936203809361038DEC90E09093B7
:102CA0006E0380936D038CEC90E09093700380939F
:102CB0006F0388EC90E0909372038093710389EC2A
:102CC00090E090937403809373038AEC90E0909368
:102CD0007603809375038EEC90E090937803809355
:102CE000770310927A0310927B0310927C03109268
:102CF0007D030895AF92BF92CF92DF92EF92FF9241
:102D00000F931F93CF93DF936C017B01C0E0D0E062
:102D100000E010E0F601EC0FFD1F4AE050E0628198
:102D2000C7010E94BA155C016EE2C7010E94D5146A
:102D30008A0D9B1D080F191F2196C330D10551F72D
:102D40004AE050E0F6016581C7010E94BA15800F84
:102D5000911FDF91CF911F910F91FF90EF90DF9026
:102D6000CF90BF90AF9008950F93FC018DE492E057
:102D70009183808362834383248305830F91089525
:102D80008DE492E09093FF038093FE031092000481
:102D900010920104109202041092030408954091CD
:102DA0000804509109042091060430910704421749
:102DB0005307B4F49091E8009570E1F39091E80026
:102DC00092FD19C08093F10080910804909109044C
:102DD00001968F739927892B19F48EEF8093E80061
:102DE00080910804909109040196909309048093BE
:102DF000080481E0089580E00895FF920F931F93E7
:102E0000CF93DF938C0188E10E94CF1683E00E946C
:102E1000CF16C0E0D0E0F801EC0FFD1F84910E94B6
:102E2000CF16F82E80E00E94CF168F2121F0219638
:102E3000CB30D10581F7DF91CF911F910F91FF909A
:102E40000895615030F02091F100FC01208301963B
:102E5000F8CF289884E680930B0408952FB7FC01DF
:102E60002083F89467706093E9000895CF93DF930F
:102E70001F92CDB7DEB7682FCE0101960E942E17A4
:102E80008091F20099819FBF0F90DF91CF910895BB
:102E9000FF920F931F93CF93DF9300D0CDB7DEB790
:102EA000F62E8A0190910A04992311F057FF03C06E
:102EB0008FEF9FEF2BC0682FCE0101967A830E947F
:102EC0002E178091F20090E0A8017A818017910777
:102ED0000CF4AC01EF2DF72FF40E84E6FE1639F05A
:102EE000289880930B049091F1009193F7CF4115AE
:102EF000510521F08091F200882321F089818FBF54
:102F0000CA0104C08BE68093E800F8CF0F900F90C1
:102F1000DF91CF911F910F91FF900895CF93DF9391
:102F20001F92CDB7DEB741E050E0BE016F5F7F4F2B
:102F30000E944817019719F4898190E002C08FEF31
:102F40009FEF0F90DF91CF910895CF93DF931F9262
:102F5000CDB7DEB7682FCE0101960E942E17909153
:102F6000E800892F807295FF04C09091F20080E400
:102F7000891B99819FBF0F90DF91CF9108956F9228
:102F80007F928F929F92AF92BF92CF92DF92EF92F9
:102F9000FF920F931F93CF93DF931F92CDB7DEB7AE
:102FA000782E7B01C42EB52E80910A04882369F007
:102FB000042F152F8AEFD82E872D8072982E9AE332
:102FC000A92E872D8074882E11C08FEF9FEF57C0D8
:102FD000872D0E94A517682E81110CC0DA94A9F3E1
:102FE00061E070E080E090E00E94820E0115110522
:102FF00079F73BC0282F30E0021713070CF4602E3E
:10300000672DCE0101960E942E178091E80085FF62
:1030100029C0262D30E0021B130B992039F06A9449
:103020008FEF6816B1F01092F100F9CFF701862DFD
:1030300077FE07C0815058F094919093F10031963B
:10304000F9CF815020F091919093F100FACFE20EE8
:10305000F31E8091E80085FF0FC00115110511F4E2
:1030600081100AC089818FBFC1CF5D9884E68093AB
:103070000C048C2D9B2D03C0A092E800F3CF0F9081
:10308000DF91CF911F910F91FF90EF90DF90CF9044
:10309000BF90AF909F908F907F906F900895109207
:1030A000E900109209041092080490930704809399
:1030B00006040895CF92DF92FF920F931F93CF9350
:1030C000DF9300D0CDB7DEB7F82E8A016B01011572
:1030D0001105B1F0F601F7FE02C0849101C08081B4
:1030E00049835A830E94CF1601501109FFEFCF1A6E
:1030F000DF0A49815A818111EACF8FEF9FEF01C02A
:10310000CA010F900F90DF91CF911F910F91FF9007
:10311000DF90CF9008951F93CF93DF931F92CDB789
:10312000DEB7162F2091E80022FFFCCF612F7983B4
:103130000E9421178BEF8093E800812F7981972FD0
:103140000F90DF91CF911F910895CF93DF931F923E
:10315000CDB7DEB71982CE0101960E94E713CE01EA
:1031600001960E947D1A898190E00F90DF91CF91A6
:1031700008951F920F920FB60F921124EF92FF92B3
:103180000F931F932F933F934F935F936F937F936F
:103190008F939F93AF93BF93EF93FF93CF93DF935F
:1031A000CDB7DEB76297DEBFCDBF1092E900809148
:1031B000E80083FFE9C068E0CE010A960E9421176B
:1031C00082EF8093E8009A8597FF05C08091E80020
:1031D00080FFFCCF03C08EEF8093E800892F8076BC
:1031E00009F0B7C08B85811105C01092F1001092D3
:1031F000F100C3C0282F2D7F213009F4BEC08530D7
:1032000049F48091E80080FFFCCF8C858068809332
:10321000E300B3C0863009F074C02D85E888F988D2
:10322000223071F580E090E02A8B0E944F180E94B6
:10323000A51899E08E010F5F1F4FF801392F1192E9
:103240003A95E9F799832A892A8391E09E8390E849
:1032500098879AEF99872091080430910904275F95
:103260003F4F3C832B838D83C7010E944F1849E059
:1032700050E0B80180E00E945A180E94A5187DC055
:10328000C7012A8B0E944F182A89223241F482E218
:1032900090E00E94881A892B09F06FC072C021301B
:1032A00069F488899989089711F42093050480911D
:1032B0000504811116C065ED71E018C0233009F0D6
:1032C00060C08C85882381F0823019F483EF91E00F
:1032D00005C0813009F055C087EE91E00E94FD16CF
:1032E0004AC063EC71E002C06FEF71E061157105D7
:1032F00009F447C0FB01449150E080E80E945A184D
:103300003CC0873009F43DC0883021F481E08093CF
:10331000F10033C0893089F5937099F5EFEBF1E056
:1033200081E021E096E38093E9002093EB00349163
:103330003093EC009093ED008F5F3196853099F7D4
:103340008EE78093EA001092EA008C8580930A044D
:1033500014C0888999890E944F188E85811105C0F3
:10336000CE010A960E94F21306C0823051F4CE01BB
:103370000A960E94B01A882321F08EEF8093E8000D
:1033800003C081E28093EB0062960FB6F894DEBF33
:103390000FBECDBFDF91CF91FF91EF91BF91AF9164
:1033A0009F918F917F916F915F914F913F912F915D
:1033B0001F910F91FF90EF900F900FBE0F901F90F5
:1033C00018958093E9008091F200882319F08AE330
:1033D0008093E80008951F920F920FB60F92112468
:1033E0002F933F934F935F936F937F938F939F930D
:1033F000AF93BF93EF93FF938091E1001092E100B0
:1034000083FF0FC01092E90091E09093EB001092BF
:10341000EC0092E39093ED0010920A0498E09093F0
:10342000F00082FF1DC083E00E94E11980910C042E
:10343000882339F080910C04815080930C048823F8
:1034400069F080910B04882359F080910B0481501E
:1034500080930B04811104C0289A02C05D9AF1CFB9
:10346000FF91EF91BF91AF919F918F917F916F915C
:103470005F914F913F912F910F900FBE0F901F9032
:10348000189510920A0481E08093D70080EA809317
:10349000D80082E189BD09B400FEFDCF61E070E093
:1034A00080E090E00E94820E80E98093D8008CE05A
:1034B0008093E2001092E000559A209A0895FF92BE
:1034C0000F931F93CF93DF93EC01F62EE881F981E0
:1034D0000480F581E02D09958C01E881F981068051
:1034E000F781E02D6F2DCE010995C8019927DF9155
:1034F000CF911F910F91FF900895FC0120812F5FC4
:10350000208349E150E063E872E080E80C945A18A7
:1035100045E650E06CE972E080E80C945A18EF92AE
:10352000FF920F931F93CF93DF931F92CDB7DEB718
:1035300089838B017A0141E050E0BE016F5F7F4FCC
:1035400084E00E94BF17A701B80184E40E94BF175E
:103550000F90DF91CF911F910F91FF90EF90089501
:10356000FC0191818081813A31F481E0913091F0C8
:10357000933089F411C0813271F49B3021F482813F
:103580008093170105C09A3031F48281809316012F
:1035900081E00895089580E0089548E050E082E0D9
:1035A0000C948F1ACF93DF93DC01683818F0E8E7AA
:1035B000E60F25C0E62FF0E067FF11C0E058F109E3
:1035C00081E090E001C0880FEA95EAF714969C919B
:1035D0001497982B14969C931497E0E010C0ED5F1D
:1035E000FD4FE491EE2309F440C0E7FF08C01496B4
:1035F0008C911497826014968C931497EF7716969B
:103600008C9116978E1741F117968C9117978E17FC
:1036100019F118968C9118978E17F1F019968C91D4
:1036200019978E17C9F01A968C911A978E17A1F0D8
:103630001B968C911B978E1779F080E090E0ED013E
:10364000C80FD91F2E81211102C0EE8305C001963B
:1036500086309105A1F709C0BD016C5F7F4FCD0198
:103660000E94CD1A81E090E008C081E090E01396BE
:103670009C938E93129780E090E0DF91CF91089514
:10368000683818F0E8E7E60F25C0E62FF0E067FF9E
:1036900012C0E058F10921E030E001C0220FEA95A4
:1036A000EAF72095DC0114963C9114973223149686
:1036B0003C93E0E00FC0ED5FFD4FE491EE2329F174
:1036C000E7FF08C0DC0114962C9114972D7F149607
:1036D0002C93EF7720E030E0EE2351F0DC01A20FD5
:1036E000B31F16964C9116974E1302C016961C9255
:1036F0002F5F3F4F2630310579F7BC016C5F7F4F5C
:103700000E94CD1A81E090E0089580E090E0089555
:10371000FC01168217821086118612861386148287
:10372000BC016C5F7F4F0C94CD1A1092190410925B
:10373000100410920F0483E592E090930E0480939E
:103740000D04089597FB072E16F4009407D077FD1B
:1037500009D00E94DE1B07FC05D03EF490958195B0
:103760009F4F0895709561957F4F0895A1E21A2E9D
:10377000AA1BBB1BFD010DC0AA1FBB1FEE1FFF1F15
:10378000A217B307E407F50720F0A21BB30BE40B65
:10379000F50B661F771F881F991F1A9469F76095AC
:1037A0007095809590959B01AC01BD01CF01089566
:1037B000EE0FFF1F0590F491E02D0994AA1BBB1B8F
:1037C00051E107C0AA1FBB1FA617B70710F0A61B21
:1037D000B70B881F991F5A95A9F780959095BC0142
:1037E000CD010895CF93DF938230910510F482E0EC
:1037F00090E0E0911C04F0911D0420E030E0A0E096
:10380000B0E0309739F14081518148175907B8F03D
:103810004817590771F482819381109729F0139604
:103820009C938E9312972CC090931D0480931C043C
:1038300027C02115310531F04217530718F0A901AF
:10384000DB0101C0EF019A01BD01DF010280F381BC
:10385000E02DD7CF21153105F9F0281B390B243085
:10386000310580F48A819B816115710521F0FB018E
:103870009383828304C090931D0480931C04FE01F3
:10388000329644C0FE01E20FF31F819391932250C0
:103890003109398328833AC020911A0430911B04DE
:1038A000232B41F4209102013091030130931B043A
:1038B00020931A0420910001309101012115310556
:1038C00041F42DB73EB74091040150910501241BEE
:1038D000350BE0911A04F0911B04E217F307A0F4F2
:1038E0002E1B3F0B2817390778F0AC014E5F5F4F56
:1038F0002417350748F04E0F5F1F50931B04409369
:103900001A048193919302C0E0E0F0E0CF01DF91CF
:10391000CF910895CF93DF93009709F487C0FC01FE
:10392000329713821282C0911C04D0911D042097FB
:1039300081F420813181280F391F80911A049091E0
:103940001B048217930779F5F0931B04E0931A0484
:103950006DC0DE0120E030E0AE17BF0750F41296D4
:103960004D915C9113979D014115510509F1DA01C3
:10397000F3CFB383A28340815181840F951F8A17AF
:103980009B0771F48D919C911197840F951F02965E
:103990009183808312968D919C9113979383828358
:1039A0002115310529F4F0931D04E0931C043EC059
:1039B000D9011396FC93EE9312974D915D91A40F4C
:1039C000B51FEA17FB0779F480819181840F951F59
:1039D0000296D90111969C938E93828193811396BE
:1039E0009C938E931297E0E0F0E08A819B81009790
:1039F00019F0FE01EC01F9CFCE0102962881398140
:103A0000820F931F20911A0430911B042817390745
:103A100069F4309729F410921D0410921C0402C01E
:103A200013821282D0931B04C0931A04DF91CF91AA
:103A30000895A0E0B0E0EFE1FDE10C947C1EEC0104
:103A4000CB01209719F40E94F21BB8C0FE01E60FCB
:103A5000F71F9E0122503109E217F30708F4ACC0AA
:103A6000D9010D911C91119706171707B8F0053071
:103A7000110508F49FC0A801445051094617570783
:103A800008F498C002501109061B170B01931193FB
:103A90006D937C93CF010E948A1C8CC05B01A01A9D
:103AA000B10A4E01800E911EA0911C04B0911D041C
:103AB000612C712C60E070E0109709F449C0A815E2
:103AC000B905C9F5ED90FC901197670142E0C40E6D
:103AD000D11CCA14DB0478F147018A189B086401E1
:103AE00042E0C40ED11C1296BC9012971396AC9172
:103AF000B5E0CB16D10440F0B282A38391828082DC
:103B0000D9018D939C9309C00E5F1F4F0E0D1F1D91
:103B1000F90111830083EB2DFA2F6115710531F046
:103B2000DB011396FC93EE93129744C0F0931D04AF
:103B3000E0931C043FC06D917C9111976616770647
:103B400008F43B01BD0112960D90BC91A02DB4CF9D
:103B500060911A0470911B0468157905E9F46816E0
:103B60007906D0F4409100015091010141155105B1
:103B700041F44DB75EB76091040170910501461B99
:103B8000570BE417F507C0F4F0931B04E0931A04F5
:103B9000F901918380830EC00E94F21B7C01009783
:103BA00059F0A801BE010E940A1ECE010E948A1C83
:103BB000C70104C0CE0102C080E090E0CDB7DEB7FF
:103BC000EEE00C94981E1F93FC0199278827BC01F6
:103BD000E89411911032E9F3193010F01E30C8F357
:103BE0001B3251F01D3249F4689406C00E94391E00
:103BF000610F711D811D911D119110531A30B0F389
:103C00003EF490958095709561957F4F8F4F9F4FB3
:103C10001F910895FB01DC0102C001900D924150FB
:103C20005040D8F70895FB01DC018D910190801977
:103C30000110D9F3990B0895FB01DC0101900D925D
:103C40000020E1F708954532510520F4423010F08C
:103C50000C942E1EFB011082CB010895BB274A3025
:103C600031F4992322F4BDE2909581959F4F0C94F5
:103C70004F1E592F482F372F262F660F771F881F6B
:103C8000991F660F771F881F991F620F731F841F6C
:103C9000951F660F771F881F991F0895BB27FB018B
:103CA0005527AA27880F991FAA1FA41710F0A41B35
:103CB00083955051B9F7A05DAA3308F0A95DA1938F
:103CC000009779F7B111B1931192CB010C94681E52
:103CD000DC01FC01672F71917723E1F7329704C073
:103CE0007C916D9370836291AE17BF07C8F30895FE
:103CF0002F923F924F925F926F927F928F929F92FC
:103D0000AF92BF92CF92DF92EF92FF920F931F93E9
:103D1000CF93DF93CDB7DEB7CA1BDB0B0FB6F8949A
:103D2000DEBF0FBECDBF09942A88398848885F84DA
:103D30006E847D848C849B84AA84B984C884DF804B
:103D4000EE80FD800C811B81AA81B981CE0FD11D2F
:103D50000FB6F894DEBF0FBECDBFED01089513E09E
:103D6000C8E1D3E004C0FE010E94DA1B2296CC31E8
:083D7000D107C9F7F894FFCF59
:103D780000001E048000030005000600102700E173
:103D88000000000000000101585858585858583190
:103D98003030636F6E6E656374696E672E2E2E0009
:103DA800636F6E6E656374656400636F6E6E6563E2
:103DB80074696F6E206661696C6564006C65642E59
:103DC8005374617475730057616E20697320646F52
:103DD800776E00526573657474696E6720537973E2
:103DE80074656D002F7573722F62696E2F7265622C
:103DF8006F6F74007265636F72642E5374617274AE
:103E08000073656E64696E67207265636F72642003
:103E1800636F6D6D616E640053656E64696E6720D3
:103E280053746F70205265636F726420436F6D6DB9
:103E3800616E64007265636F72642E53746F7000F4
:103E480000000000F90439050B0615062F06A20527
:103E580000000000FE07D40676088008CD086D062D
:103E68006E066B079808160740076A06FE002F6261
:103E7800696E2F617368002D630000000000F3086D
:103E88007214480952096A09F20800000000C312B6
:103E9800721445125E125012A112000000008A131B
:103EA800D113B413C413A013B1130D0A006E616EBD
:103EB80000696E66006F766600000000007A1600E2
:0E3EC8000000005F1A7214D21A401B881B0003
:00000001FF
